{
  "_format": "hh-sol-artifact-1",
  "contractName": "CertificateRegistry",
  "sourceName": "contracts/CertificateRegistry.sol",
  "abi": [
    {
      "inputs": [],
      "stateMutability": "nonpayable",
      "type": "constructor"
    },
    {
      "inputs": [],
      "name": "AccessControlBadConfirmation",
      "type": "error"
    },
    {
      "inputs": [
        {
          "internalType": "address",
          "name": "account",
          "type": "address"
        },
        {
          "internalType": "bytes32",
          "name": "neededRole",
          "type": "bytes32"
        }
      ],
      "name": "AccessControlUnauthorizedAccount",
      "type": "error"
    },
    {
      "anonymous": false,
      "inputs": [
        {
          "indexed": true,
          "internalType": "bytes32",
          "name": "certHash",
          "type": "bytes32"
        },
        {
          "indexed": true,
          "internalType": "address",
          "name": "studentWallet",
          "type": "address"
        },
        {
          "indexed": true,
          "internalType": "address",
          "name": "issuer",
          "type": "address"
        },
        {
          "indexed": false,
          "internalType": "string",
          "name": "courseTitle",
          "type": "string"
        },
        {
          "indexed": false,
          "internalType": "uint256",
          "name": "timestamp",
          "type": "uint256"
        }
      ],
      "name": "CertificateIssued",
      "type": "event"
    },
    {
      "anonymous": false,
      "inputs": [
        {
          "indexed": true,
          "internalType": "bytes32",
          "name": "certHash",
          "type": "bytes32"
        },
        {
          "indexed": true,
          "internalType": "address",
          "name": "revoker",
          "type": "address"
        }
      ],
      "name": "CertificateRevoked",
      "type": "event"
    },
    {
      "anonymous": false,
      "inputs": [
        {
          "indexed": true,
          "internalType": "address",
          "name": "account",
          "type": "address"
        },
        {
          "indexed": true,
          "internalType": "address",
          "name": "grantedBy",
          "type": "address"
        }
      ],
      "name": "IssuerGranted",
      "type": "event"
    },
    {
      "anonymous": false,
      "inputs": [
        {
          "indexed": true,
          "internalType": "address",
          "name": "account",
          "type": "address"
        },
        {
          "indexed": true,
          "internalType": "address",
          "name": "revokedBy",
          "type": "address"
        }
      ],
      "name": "IssuerRevoked",
      "type": "event"
    },
    {
      "anonymous": false,
      "inputs": [
        {
          "indexed": true,
          "internalType": "bytes32",
          "name": "role",
          "type": "bytes32"
        },
        {
          "indexed": true,
          "internalType": "bytes32",
          "name": "previousAdminRole",
          "type": "bytes32"
        },
        {
          "indexed": true,
          "internalType": "bytes32",
          "name": "newAdminRole",
          "type": "bytes32"
        }
      ],
      "name": "RoleAdminChanged",
      "type": "event"
    },
    {
      "anonymous": false,
      "inputs": [
        {
          "indexed": true,
          "internalType": "bytes32",
          "name": "role",
          "type": "bytes32"
        },
        {
          "indexed": true,
          "internalType": "address",
          "name": "account",
          "type": "address"
        },
        {
          "indexed": true,
          "internalType": "address",
          "name": "sender",
          "type": "address"
        }
      ],
      "name": "RoleGranted",
      "type": "event"
    },
    {
      "anonymous": false,
      "inputs": [
        {
          "indexed": true,
          "internalType": "bytes32",
          "name": "role",
          "type": "bytes32"
        },
        {
          "indexed": true,
          "internalType": "address",
          "name": "account",
          "type": "address"
        },
        {
          "indexed": true,
          "internalType": "address",
          "name": "sender",
          "type": "address"
        }
      ],
      "name": "RoleRevoked",
      "type": "event"
    },
    {
      "anonymous": false,
      "inputs": [
        {
          "indexed": true,
          "internalType": "bytes32",
          "name": "aadhaarHash",
          "type": "bytes32"
        },
        {
          "indexed": true,
          "internalType": "address",
          "name": "wallet",
          "type": "address"
        },
        {
          "indexed": false,
          "internalType": "string",
          "name": "name",
          "type": "string"
        }
      ],
      "name": "StudentRegistered",
      "type": "event"
    },
    {
      "anonymous": false,
      "inputs": [
        {
          "indexed": true,
          "internalType": "bytes32",
          "name": "aadhaarHash",
          "type": "bytes32"
        },
        {
          "indexed": false,
          "internalType": "address",
          "name": "oldWallet",
          "type": "address"
        },
        {
          "indexed": false,
          "internalType": "address",
          "name": "newWallet",
          "type": "address"
        }
      ],
      "name": "StudentWalletUpdated",
      "type": "event"
    },
    {
      "inputs": [],
      "name": "DEFAULT_ADMIN_ROLE",
      "outputs": [
        {
          "internalType": "bytes32",
          "name": "",
          "type": "bytes32"
        }
      ],
      "stateMutability": "view",
      "type": "function"
    },
    {
      "inputs": [],
      "name": "ISSUER_ROLE",
      "outputs": [
        {
          "internalType": "bytes32",
          "name": "",
          "type": "bytes32"
        }
      ],
      "stateMutability": "view",
      "type": "function"
    },
    {
      "inputs": [
        {
          "internalType": "bytes32",
          "name": "",
          "type": "bytes32"
        }
      ],
      "name": "certificates",
      "outputs": [
        {
          "internalType": "bytes32",
          "name": "aadhaarHash",
          "type": "bytes32"
        },
        {
          "internalType": "address",
          "name": "studentWallet",
          "type": "address"
        },
        {
          "internalType": "address",
          "name": "issuer",
          "type": "address"
        },
        {
          "internalType": "string",
          "name": "studentName",
          "type": "string"
        },
        {
          "internalType": "string",
          "name": "courseTitle",
          "type": "string"
        },
        {
          "internalType": "string",
          "name": "ipfsCID",
          "type": "string"
        },
        {
          "internalType": "uint256",
          "name": "timestamp",
          "type": "uint256"
        },
        {
          "internalType": "bool",
          "name": "revoked",
          "type": "bool"
        },
        {
          "internalType": "bool",
          "name": "exists",
          "type": "bool"
        }
      ],
      "stateMutability": "view",
      "type": "function"
    },
    {
      "inputs": [
        {
          "internalType": "bytes32",
          "name": "role",
          "type": "bytes32"
        }
      ],
      "name": "getRoleAdmin",
      "outputs": [
        {
          "internalType": "bytes32",
          "name": "",
          "type": "bytes32"
        }
      ],
      "stateMutability": "view",
      "type": "function"
    },
    {
      "inputs": [
        {
          "internalType": "bytes32",
          "name": "_aadhaarHash",
          "type": "bytes32"
        }
      ],
      "name": "getStudentByAadhaar",
      "outputs": [
        {
          "internalType": "address",
          "name": "wallet",
          "type": "address"
        },
        {
          "internalType": "string",
          "name": "name",
          "type": "string"
        },
        {
          "internalType": "bool",
          "name": "exists",
          "type": "bool"
        }
      ],
      "stateMutability": "view",
      "type": "function"
    },
    {
      "inputs": [
        {
          "internalType": "address",
          "name": "_wallet",
          "type": "address"
        }
      ],
      "name": "getStudentCertificateCount",
      "outputs": [
        {
          "internalType": "uint256",
          "name": "",
          "type": "uint256"
        }
      ],
      "stateMutability": "view",
      "type": "function"
    },
    {
      "inputs": [
        {
          "internalType": "address",
          "name": "_wallet",
          "type": "address"
        },
        {
          "internalType": "uint256",
          "name": "_index",
          "type": "uint256"
        }
      ],
      "name": "getStudentCertificateHash",
      "outputs": [
        {
          "internalType": "bytes32",
          "name": "",
          "type": "bytes32"
        }
      ],
      "stateMutability": "view",
      "type": "function"
    },
    {
      "inputs": [
        {
          "internalType": "address",
          "name": "_account",
          "type": "address"
        }
      ],
      "name": "grantIssuerRole",
      "outputs": [],
      "stateMutability": "nonpayable",
      "type": "function"
    },
    {
      "inputs": [
        {
          "internalType": "bytes32",
          "name": "role",
          "type": "bytes32"
        },
        {
          "internalType": "address",
          "name": "account",
          "type": "address"
        }
      ],
      "name": "grantRole",
      "outputs": [],
      "stateMutability": "nonpayable",
      "type": "function"
    },
    {
      "inputs": [
        {
          "internalType": "bytes32",
          "name": "role",
          "type": "bytes32"
        },
        {
          "internalType": "address",
          "name": "account",
          "type": "address"
        }
      ],
      "name": "hasRole",
      "outputs": [
        {
          "internalType": "bool",
          "name": "",
          "type": "bool"
        }
      ],
      "stateMutability": "view",
      "type": "function"
    },
    {
      "inputs": [
        {
          "internalType": "address",
          "name": "_account",
          "type": "address"
        }
      ],
      "name": "isAdmin",
      "outputs": [
        {
          "internalType": "bool",
          "name": "",
          "type": "bool"
        }
      ],
      "stateMutability": "view",
      "type": "function"
    },
    {
      "inputs": [
        {
          "internalType": "address",
          "name": "_account",
          "type": "address"
        }
      ],
      "name": "isIssuer",
      "outputs": [
        {
          "internalType": "bool",
          "name": "",
          "type": "bool"
        }
      ],
      "stateMutability": "view",
      "type": "function"
    },
    {
      "inputs": [
        {
          "internalType": "bytes32",
          "name": "_certHash",
          "type": "bytes32"
        },
        {
          "internalType": "address",
          "name": "_studentWallet",
          "type": "address"
        },
        {
          "internalType": "bytes32",
          "name": "_aadhaarHash",
          "type": "bytes32"
        },
        {
          "internalType": "string",
          "name": "_studentName",
          "type": "string"
        },
        {
          "internalType": "string",
          "name": "_courseTitle",
          "type": "string"
        },
        {
          "internalType": "string",
          "name": "_ipfsCID",
          "type": "string"
        }
      ],
      "name": "issueCertificate",
      "outputs": [],
      "stateMutability": "nonpayable",
      "type": "function"
    },
    {
      "inputs": [
        {
          "internalType": "bytes32",
          "name": "_aadhaarHash",
          "type": "bytes32"
        },
        {
          "internalType": "string",
          "name": "_name",
          "type": "string"
        }
      ],
      "name": "registerStudent",
      "outputs": [],
      "stateMutability": "nonpayable",
      "type": "function"
    },
    {
      "inputs": [
        {
          "internalType": "bytes32",
          "name": "role",
          "type": "bytes32"
        },
        {
          "internalType": "address",
          "name": "callerConfirmation",
          "type": "address"
        }
      ],
      "name": "renounceRole",
      "outputs": [],
      "stateMutability": "nonpayable",
      "type": "function"
    },
    {
      "inputs": [
        {
          "internalType": "bytes32",
          "name": "_certHash",
          "type": "bytes32"
        }
      ],
      "name": "revokeCertificate",
      "outputs": [],
      "stateMutability": "nonpayable",
      "type": "function"
    },
    {
      "inputs": [
        {
          "internalType": "address",
          "name": "_account",
          "type": "address"
        }
      ],
      "name": "revokeIssuerRole",
      "outputs": [],
      "stateMutability": "nonpayable",
      "type": "function"
    },
    {
      "inputs": [
        {
          "internalType": "bytes32",
          "name": "role",
          "type": "bytes32"
        },
        {
          "internalType": "address",
          "name": "account",
          "type": "address"
        }
      ],
      "name": "revokeRole",
      "outputs": [],
      "stateMutability": "nonpayable",
      "type": "function"
    },
    {
      "inputs": [
        {
          "internalType": "address",
          "name": "",
          "type": "address"
        },
        {
          "internalType": "uint256",
          "name": "",
          "type": "uint256"
        }
      ],
      "name": "studentCertificates",
      "outputs": [
        {
          "internalType": "bytes32",
          "name": "",
          "type": "bytes32"
        }
      ],
      "stateMutability": "view",
      "type": "function"
    },
    {
      "inputs": [
        {
          "internalType": "bytes32",
          "name": "",
          "type": "bytes32"
        }
      ],
      "name": "students",
      "outputs": [
        {
          "internalType": "address",
          "name": "wallet",
          "type": "address"
        },
        {
          "internalType": "string",
          "name": "name",
          "type": "string"
        },
        {
          "internalType": "bool",
          "name": "exists",
          "type": "bool"
        }
      ],
      "stateMutability": "view",
      "type": "function"
    },
    {
      "inputs": [
        {
          "internalType": "bytes4",
          "name": "interfaceId",
          "type": "bytes4"
        }
      ],
      "name": "supportsInterface",
      "outputs": [
        {
          "internalType": "bool",
          "name": "",
          "type": "bool"
        }
      ],
      "stateMutability": "view",
      "type": "function"
    },
    {
      "inputs": [],
      "name": "totalCertificates",
      "outputs": [
        {
          "internalType": "uint256",
          "name": "",
          "type": "uint256"
        }
      ],
      "stateMutability": "view",
      "type": "function"
    },
    {
      "inputs": [],
      "name": "totalStudents",
      "outputs": [
        {
          "internalType": "uint256",
          "name": "",
          "type": "uint256"
        }
      ],
      "stateMutability": "view",
      "type": "function"
    },
    {
      "inputs": [
        {
          "internalType": "bytes32",
          "name": "_aadhaarHash",
          "type": "bytes32"
        },
        {
          "internalType": "address",
          "name": "_newWallet",
          "type": "address"
        }
      ],
      "name": "updateStudentWallet",
      "outputs": [],
      "stateMutability": "nonpayable",
      "type": "function"
    },
    {
      "inputs": [
        {
          "internalType": "bytes32",
          "name": "_certHash",
          "type": "bytes32"
        }
      ],
      "name": "verifyCertificate",
      "outputs": [
        {
          "internalType": "bool",
          "name": "exists",
          "type": "bool"
        },
        {
          "internalType": "string",
          "name": "studentName",
          "type": "string"
        },
        {
          "internalType": "string",
          "name": "courseTitle",
          "type": "string"
        },
        {
          "internalType": "string",
          "name": "ipfsCID",
          "type": "string"
        },
        {
          "internalType": "address",
          "name": "issuer",
          "type": "address"
        },
        {
          "internalType": "address",
          "name": "studentWallet",
          "type": "address"
        },
        {
          "internalType": "uint256",
          "name": "timestamp",
          "type": "uint256"
        },
        {
          "internalType": "bool",
          "name": "revoked",
          "type": "bool"
        }
      ],
      "stateMutability": "view",
      "type": "function"
    },
    {
      "inputs": [
        {
          "internalType": "address",
          "name": "",
          "type": "address"
        }
      ],
      "name": "walletToAadhaar",
      "outputs": [
        {
          "internalType": "bytes32",
          "name": "",
          "type": "bytes32"
        }
      ],
      "stateMutability": "view",
      "type": "function"
    }
  ],
  "bytecode": "0x60806040523480156200001157600080fd5b50620000276000801b336200002e60201b60201c565b50620001a3565b60006200004283836200013160201b60201c565b6200012657600160008085815260200190815260200160002060000160008473ffffffffffffffffffffffffffffffffffffffff1673ffffffffffffffffffffffffffffffffffffffff16815260200190815260200160002060006101000a81548160ff021916908315150217905550620000c26200019b60201b60201c565b73ffffffffffffffffffffffffffffffffffffffff168273ffffffffffffffffffffffffffffffffffffffff16847f2f8788117e7eff1d82e926ec794901d17c78024a50270940304540a733656f0d60405160405180910390a4600190506200012b565b600090505b92915050565b600080600084815260200190815260200160002060000160008373ffffffffffffffffffffffffffffffffffffffff1673ffffffffffffffffffffffffffffffffffffffff16815260200190815260200160002060009054906101000a900460ff16905092915050565b600033905090565b612e2a80620001b36000396000f3fe608060405234801561001057600080fd5b506004361061018e5760003560e01c8063877b9a67116100de578063b80d4c4a11610097578063c3934f0e11610071578063c3934f0e146104f0578063c6cbc52a14610520578063d547741f1461053c578063dbf80089146105585761018e565b8063b80d4c4a14610474578063bdb70914146104a4578063c226038a146104d45761018e565b8063877b9a671461038c57806390590e2f146103bc57806391d14854146103ec5780639852bf8e1461041c578063a217fddf1461043a578063a5c8d38d146104585761018e565b806336568abe1161014b578063596b772f11610125578063596b772f146102e1578063742f0688146102ff57806382aefa2414610337578063850c1768146103555761018e565b806336568abe14610277578063380c6a331461029357806349eb1676146102c55761018e565b806301ffc9a7146101935780630e82cf04146101c3578063140802ee146101df578063248a9ca3146101fb57806324d7806c1461022b5780632f2ff15d1461025b575b600080fd5b6101ad60048036038101906101a89190611ed5565b61058a565b6040516101ba9190611f1d565b60405180910390f35b6101dd60048036038101906101d89190612112565b610604565b005b6101f960048036038101906101f491906121f3565b61099d565b005b61021560048036038101906102109190612220565b610a32565b604051610222919061225c565b60405180910390f35b610245600480360381019061024091906121f3565b610a51565b6040516102529190611f1d565b60405180910390f35b61027560048036038101906102709190612277565b610a67565b005b610291600480360381019061028c9190612277565b610a89565b005b6102ad60048036038101906102a89190612220565b610b04565b6040516102bc93929190612345565b60405180910390f35b6102df60048036038101906102da9190612383565b610c4b565b005b6102e9610ea9565b6040516102f691906123f8565b60405180910390f35b61031960048036038101906103149190612220565b610eaf565b60405161032e99989796959493929190612413565b60405180910390f35b61033f6110ef565b60405161034c919061225c565b60405180910390f35b61036f600480360381019061036a9190612220565b611113565b6040516103839897969594939291906124b5565b60405180910390f35b6103a660048036038101906103a191906121f3565b611434565b6040516103b39190611f1d565b60405180910390f35b6103d660048036038101906103d19190612574565b611467565b6040516103e3919061225c565b60405180910390f35b61040660048036038101906104019190612277565b6114cd565b6040516104139190611f1d565b60405180910390f35b610424611537565b60405161043191906123f8565b60405180910390f35b61044261153d565b60405161044f919061225c565b60405180910390f35b610472600480360381019061046d91906121f3565b611544565b005b61048e600480360381019061048991906121f3565b6115d9565b60405161049b919061225c565b60405180910390f35b6104be60048036038101906104b991906121f3565b6115f1565b6040516104cb91906123f8565b60405180910390f35b6104ee60048036038101906104e99190612277565b61163d565b005b61050a60048036038101906105059190612574565b611932565b604051610517919061225c565b60405180910390f35b61053a60048036038101906105359190612220565b611963565b005b61055660048036038101906105519190612277565b611aae565b005b610572600480360381019061056d9190612220565b611ad0565b60405161058193929190612345565b60405180910390f35b60007f7965db0b000000000000000000000000000000000000000000000000000000007bffffffffffffffffffffffffffffffffffffffffffffffffffffffff1916827bffffffffffffffffffffffffffffffffffffffffffffffffffffffff191614806105fd57506105fc82611baf565b5b9050919050565b7f114e74f6ea3bd819998f78687bfcb11b140da08e9b7d222fa9c1f1ba1f2aa12261062e81611c19565b600073ffffffffffffffffffffffffffffffffffffffff168673ffffffffffffffffffffffffffffffffffffffff160361069d576040517f08c379a000000000000000000000000000000000000000000000000000000000815260040161069490612600565b60405180910390fd5b6003600088815260200190815260200160002060070160019054906101000a900460ff1615610701576040517f08c379a00000000000000000000000000000000000000000000000000000000081526004016106f89061266c565b60405180910390fd5b6040518061012001604052808681526020018773ffffffffffffffffffffffffffffffffffffffff1681526020013373ffffffffffffffffffffffffffffffffffffffff16815260200185815260200184815260200183815260200142815260200160001515815260200160011515815250600360008981526020019081526020016000206000820151816000015560208201518160010160006101000a81548173ffffffffffffffffffffffffffffffffffffffff021916908373ffffffffffffffffffffffffffffffffffffffff16021790555060408201518160020160006101000a81548173ffffffffffffffffffffffffffffffffffffffff021916908373ffffffffffffffffffffffffffffffffffffffff16021790555060608201518160030190816108339190612898565b5060808201518160040190816108499190612898565b5060a082015181600501908161085f9190612898565b5060c0820151816006015560e08201518160070160006101000a81548160ff0219169083151502179055506101008201518160070160016101000a81548160ff021916908315150217905550905050600460008773ffffffffffffffffffffffffffffffffffffffff1673ffffffffffffffffffffffffffffffffffffffff1681526020019081526020016000208790806001815401808255809150506001900390600052602060002001600090919091909150556005600081548092919061092790612999565b91905055503373ffffffffffffffffffffffffffffffffffffffff168673ffffffffffffffffffffffffffffffffffffffff16887fa21c7139ad6212af2dcf36d1b6621d7a6d565d2a94c45e9008129e11678f1926864260405161098c9291906129e1565b60405180910390a450505050505050565b6000801b6109aa81611c19565b6109d47f114e74f6ea3bd819998f78687bfcb11b140da08e9b7d222fa9c1f1ba1f2aa12283611aae565b3373ffffffffffffffffffffffffffffffffffffffff168273ffffffffffffffffffffffffffffffffffffffff167f19b45c31d6494a95202224ef9780f2e51d5699484120c7ab4c2e15f04e02183260405160405180910390a35050565b6000806000838152602001908152602001600020600101549050919050565b6000610a606000801b836114cd565b9050919050565b610a7082610a32565b610a7981611c19565b610a838383611c2d565b50505050565b610a91611d1e565b73ffffffffffffffffffffffffffffffffffffffff168173ffffffffffffffffffffffffffffffffffffffff1614610af5576040517f6697b23200000000000000000000000000000000000000000000000000000000815260040160405180910390fd5b610aff8282611d26565b505050565b60006060600080600160008681526020019081526020016000206040518060600160405290816000820160009054906101000a900473ffffffffffffffffffffffffffffffffffffffff1673ffffffffffffffffffffffffffffffffffffffff1673ffffffffffffffffffffffffffffffffffffffff168152602001600182018054610b8f906126bb565b80601f0160208091040260200160405190810160405280929190818152602001828054610bbb906126bb565b8015610c085780601f10610bdd57610100808354040283529160200191610c08565b820191906000526020600020905b815481529060010190602001808311610beb57829003601f168201915b505050505081526020016002820160009054906101000a900460ff1615151515815250509050806000015181602001518260400151935093509350509193909250565b6001600083815260200190815260200160002060020160009054906101000a900460ff1615610caf576040517f08c379a0000000000000000000000000000000000000000000000000000000008152600401610ca690612a5d565b60405180910390fd5b6000801b600260003373ffffffffffffffffffffffffffffffffffffffff1673ffffffffffffffffffffffffffffffffffffffff1681526020019081526020016000205414610d33576040517f08c379a0000000000000000000000000000000000000000000000000000000008152600401610d2a90612aef565b60405180910390fd5b60405180606001604052803373ffffffffffffffffffffffffffffffffffffffff168152602001828152602001600115158152506001600084815260200190815260200160002060008201518160000160006101000a81548173ffffffffffffffffffffffffffffffffffffffff021916908373ffffffffffffffffffffffffffffffffffffffff1602179055506020820151816001019081610dd69190612898565b5060408201518160020160006101000a81548160ff02191690831515021790555090505081600260003373ffffffffffffffffffffffffffffffffffffffff1673ffffffffffffffffffffffffffffffffffffffff1681526020019081526020016000208190555060066000815480929190610e5190612999565b91905055503373ffffffffffffffffffffffffffffffffffffffff16827f55bac67b93f2cead971f8579226aa556b74c81e25e661f32ca67ec979bb62bb283604051610e9d9190612b0f565b60405180910390a35050565b60055481565b60036020528060005260406000206000915090508060000154908060010160009054906101000a900473ffffffffffffffffffffffffffffffffffffffff16908060020160009054906101000a900473ffffffffffffffffffffffffffffffffffffffff1690806003018054610f24906126bb565b80601f0160208091040260200160405190810160405280929190818152602001828054610f50906126bb565b8015610f9d5780601f10610f7257610100808354040283529160200191610f9d565b820191906000526020600020905b815481529060010190602001808311610f8057829003601f168201915b505050505090806004018054610fb2906126bb565b80601f0160208091040260200160405190810160405280929190818152602001828054610fde906126bb565b801561102b5780601f106110005761010080835404028352916020019161102b565b820191906000526020600020905b81548152906001019060200180831161100e57829003601f168201915b505050505090806005018054611040906126bb565b80601f016020809104026020016040519081016040528092919081815260200182805461106c906126bb565b80156110b95780601f1061108e576101008083540402835291602001916110b9565b820191906000526020600020905b81548152906001019060200180831161109c57829003601f168201915b5050505050908060060154908060070160009054906101000a900460ff16908060070160019054906101000a900460ff16905089565b7f114e74f6ea3bd819998f78687bfcb11b140da08e9b7d222fa9c1f1ba1f2aa12281565b600060608060606000806000806000600360008b815260200190815260200160002060405180610120016040529081600082015481526020016001820160009054906101000a900473ffffffffffffffffffffffffffffffffffffffff1673ffffffffffffffffffffffffffffffffffffffff1673ffffffffffffffffffffffffffffffffffffffff1681526020016002820160009054906101000a900473ffffffffffffffffffffffffffffffffffffffff1673ffffffffffffffffffffffffffffffffffffffff1673ffffffffffffffffffffffffffffffffffffffff168152602001600382018054611207906126bb565b80601f0160208091040260200160405190810160405280929190818152602001828054611233906126bb565b80156112805780601f1061125557610100808354040283529160200191611280565b820191906000526020600020905b81548152906001019060200180831161126357829003601f168201915b50505050508152602001600482018054611299906126bb565b80601f01602080910402602001604051908101604052809291908181526020018280546112c5906126bb565b80156113125780601f106112e757610100808354040283529160200191611312565b820191906000526020600020905b8154815290600101906020018083116112f557829003601f168201915b5050505050815260200160058201805461132b906126bb565b80601f0160208091040260200160405190810160405280929190818152602001828054611357906126bb565b80156113a45780601f10611379576101008083540402835291602001916113a4565b820191906000526020600020905b81548152906001019060200180831161138757829003601f168201915b50505050508152602001600682015481526020016007820160009054906101000a900460ff161515151581526020016007820160019054906101000a900460ff1615151515815250509050806101000151816060015182608001518360a00151846040015185602001518660c001518760e001519850985098509850985098509850985050919395975091939597565b60006114607f114e74f6ea3bd819998f78687bfcb11b140da08e9b7d222fa9c1f1ba1f2aa122836114cd565b9050919050565b6000600460008473ffffffffffffffffffffffffffffffffffffffff1673ffffffffffffffffffffffffffffffffffffffff16815260200190815260200160002082815481106114ba576114b9612b31565b5b9060005260206000200154905092915050565b600080600084815260200190815260200160002060000160008373ffffffffffffffffffffffffffffffffffffffff1673ffffffffffffffffffffffffffffffffffffffff16815260200190815260200160002060009054906101000a900460ff16905092915050565b60065481565b6000801b81565b6000801b61155181611c19565b61157b7f114e74f6ea3bd819998f78687bfcb11b140da08e9b7d222fa9c1f1ba1f2aa12283610a67565b3373ffffffffffffffffffffffffffffffffffffffff168273ffffffffffffffffffffffffffffffffffffffff167fb260c74b0c57d8fbf742af712e5670cb25f53396de3e1ed123c314a1a120ed0c60405160405180910390a35050565b60026020528060005260406000206000915090505481565b6000600460008373ffffffffffffffffffffffffffffffffffffffff1673ffffffffffffffffffffffffffffffffffffffff168152602001908152602001600020805490509050919050565b6001600083815260200190815260200160002060020160009054906101000a900460ff166116a0576040517f08c379a000000000000000000000000000000000000000000000000000000000815260040161169790612bac565b60405180910390fd5b6001600083815260200190815260200160002060000160009054906101000a900473ffffffffffffffffffffffffffffffffffffffff1673ffffffffffffffffffffffffffffffffffffffff163373ffffffffffffffffffffffffffffffffffffffff16148061171957506117186000801b336114cd565b5b611758576040517f08c379a000000000000000000000000000000000000000000000000000000000815260040161174f90612c3e565b60405180910390fd5b6000801b600260008373ffffffffffffffffffffffffffffffffffffffff1673ffffffffffffffffffffffffffffffffffffffff16815260200190815260200160002054146117dc576040517f08c379a00000000000000000000000000000000000000000000000000000000081526004016117d390612caa565b60405180910390fd5b60006001600084815260200190815260200160002060000160009054906101000a900473ffffffffffffffffffffffffffffffffffffffff169050600260008273ffffffffffffffffffffffffffffffffffffffff1673ffffffffffffffffffffffffffffffffffffffff16815260200190815260200160002060009055816001600085815260200190815260200160002060000160006101000a81548173ffffffffffffffffffffffffffffffffffffffff021916908373ffffffffffffffffffffffffffffffffffffffff16021790555082600260008473ffffffffffffffffffffffffffffffffffffffff1673ffffffffffffffffffffffffffffffffffffffff16815260200190815260200160002081905550827f2608d62518b040cacc88064b274ea575bfad8632c58fb5d6d28b7ae8be99cdd88284604051611925929190612cca565b60405180910390a2505050565b6004602052816000526040600020818154811061194e57600080fd5b90600052602060002001600091509150505481565b6000801b61197081611c19565b6003600083815260200190815260200160002060070160019054906101000a900460ff166119d3576040517f08c379a00000000000000000000000000000000000000000000000000000000081526004016119ca90612d3f565b60405180910390fd5b6003600083815260200190815260200160002060070160009054906101000a900460ff1615611a37576040517f08c379a0000000000000000000000000000000000000000000000000000000008152600401611a2e90612dab565b60405180910390fd5b60016003600084815260200190815260200160002060070160006101000a81548160ff0219169083151502179055503373ffffffffffffffffffffffffffffffffffffffff16827f1dbd7f0554a6447214abb6405781d5ee119037a7024fcb7fffd542c3c12cd77660405160405180910390a35050565b611ab782610a32565b611ac081611c19565b611aca8383611d26565b50505050565b60016020528060005260406000206000915090508060000160009054906101000a900473ffffffffffffffffffffffffffffffffffffffff1690806001018054611b19906126bb565b80601f0160208091040260200160405190810160405280929190818152602001828054611b45906126bb565b8015611b925780601f10611b6757610100808354040283529160200191611b92565b820191906000526020600020905b815481529060010190602001808311611b7557829003601f168201915b5050505050908060020160009054906101000a900460ff16905083565b60007f01ffc9a7000000000000000000000000000000000000000000000000000000007bffffffffffffffffffffffffffffffffffffffffffffffffffffffff1916827bffffffffffffffffffffffffffffffffffffffffffffffffffffffff1916149050919050565b611c2a81611c25611d1e565b611e18565b50565b6000611c3983836114cd565b611d1357600160008085815260200190815260200160002060000160008473ffffffffffffffffffffffffffffffffffffffff1673ffffffffffffffffffffffffffffffffffffffff16815260200190815260200160002060006101000a81548160ff021916908315150217905550611cb0611d1e565b73ffffffffffffffffffffffffffffffffffffffff168273ffffffffffffffffffffffffffffffffffffffff16847f2f8788117e7eff1d82e926ec794901d17c78024a50270940304540a733656f0d60405160405180910390a460019050611d18565b600090505b92915050565b600033905090565b6000611d3283836114cd565b15611e0d57600080600085815260200190815260200160002060000160008473ffffffffffffffffffffffffffffffffffffffff1673ffffffffffffffffffffffffffffffffffffffff16815260200190815260200160002060006101000a81548160ff021916908315150217905550611daa611d1e565b73ffffffffffffffffffffffffffffffffffffffff168273ffffffffffffffffffffffffffffffffffffffff16847ff6391f5c32d9c69d2a47ea670b442974b53935d1edc7fd64eb21e047a839171b60405160405180910390a460019050611e12565b600090505b92915050565b611e2282826114cd565b611e655780826040517fe2517d3f000000000000000000000000000000000000000000000000000000008152600401611e5c929190612dcb565b60405180910390fd5b5050565b6000604051905090565b600080fd5b600080fd5b60007fffffffff0000000000000000000000000000000000000000000000000000000082169050919050565b611eb281611e7d565b8114611ebd57600080fd5b50565b600081359050611ecf81611ea9565b92915050565b600060208284031215611eeb57611eea611e73565b5b6000611ef984828501611ec0565b91505092915050565b60008115159050919050565b611f1781611f02565b82525050565b6000602082019050611f326000830184611f0e565b92915050565b6000819050919050565b611f4b81611f38565b8114611f5657600080fd5b50565b600081359050611f6881611f42565b92915050565b600073ffffffffffffffffffffffffffffffffffffffff82169050919050565b6000611f9982611f6e565b9050919050565b611fa981611f8e565b8114611fb457600080fd5b50565b600081359050611fc681611fa0565b92915050565b600080fd5b600080fd5b6000601f19601f8301169050919050565b7f4e487b7100000000000000000000000000000000000000000000000000000000600052604160045260246000fd5b61201f82611fd6565b810181811067ffffffffffffffff8211171561203e5761203d611fe7565b5b80604052505050565b6000612051611e69565b905061205d8282612016565b919050565b600067ffffffffffffffff82111561207d5761207c611fe7565b5b61208682611fd6565b9050602081019050919050565b82818337600083830152505050565b60006120b56120b084612062565b612047565b9050828152602081018484840111156120d1576120d0611fd1565b5b6120dc848285612093565b509392505050565b600082601f8301126120f9576120f8611fcc565b5b81356121098482602086016120a2565b91505092915050565b60008060008060008060c0878903121561212f5761212e611e73565b5b600061213d89828a01611f59565b965050602061214e89828a01611fb7565b955050604061215f89828a01611f59565b945050606087013567ffffffffffffffff8111156121805761217f611e78565b5b61218c89828a016120e4565b935050608087013567ffffffffffffffff8111156121ad576121ac611e78565b5b6121b989828a016120e4565b92505060a087013567ffffffffffffffff8111156121da576121d9611e78565b5b6121e689828a016120e4565b9150509295509295509295565b60006020828403121561220957612208611e73565b5b600061221784828501611fb7565b91505092915050565b60006020828403121561223657612235611e73565b5b600061224484828501611f59565b91505092915050565b61225681611f38565b82525050565b6000602082019050612271600083018461224d565b92915050565b6000806040838503121561228e5761228d611e73565b5b600061229c85828601611f59565b92505060206122ad85828601611fb7565b9150509250929050565b6122c081611f8e565b82525050565b600081519050919050565b600082825260208201905092915050565b60005b838110156123005780820151818401526020810190506122e5565b60008484015250505050565b6000612317826122c6565b61232181856122d1565b93506123318185602086016122e2565b61233a81611fd6565b840191505092915050565b600060608201905061235a60008301866122b7565b818103602083015261236c818561230c565b905061237b6040830184611f0e565b949350505050565b6000806040838503121561239a57612399611e73565b5b60006123a885828601611f59565b925050602083013567ffffffffffffffff8111156123c9576123c8611e78565b5b6123d5858286016120e4565b9150509250929050565b6000819050919050565b6123f2816123df565b82525050565b600060208201905061240d60008301846123e9565b92915050565b600061012082019050612429600083018c61224d565b612436602083018b6122b7565b612443604083018a6122b7565b8181036060830152612455818961230c565b90508181036080830152612469818861230c565b905081810360a083015261247d818761230c565b905061248c60c08301866123e9565b61249960e0830185611f0e565b6124a7610100830184611f0e565b9a9950505050505050505050565b6000610100820190506124cb600083018b611f0e565b81810360208301526124dd818a61230c565b905081810360408301526124f1818961230c565b90508181036060830152612505818861230c565b905061251460808301876122b7565b61252160a08301866122b7565b61252e60c08301856123e9565b61253b60e0830184611f0e565b9998505050505050505050565b612551816123df565b811461255c57600080fd5b50565b60008135905061256e81612548565b92915050565b6000806040838503121561258b5761258a611e73565b5b600061259985828601611fb7565b92505060206125aa8582860161255f565b9150509250929050565b7f496e76616c69642073747564656e742077616c6c657400000000000000000000600082015250565b60006125ea6016836122d1565b91506125f5826125b4565b602082019050919050565b60006020820190508181036000830152612619816125dd565b9050919050565b7f4365727469666963617465206861736820616c72656164792065786973747300600082015250565b6000612656601f836122d1565b915061266182612620565b602082019050919050565b6000602082019050818103600083015261268581612649565b9050919050565b7f4e487b7100000000000000000000000000000000000000000000000000000000600052602260045260246000fd5b600060028204905060018216806126d357607f821691505b6020821081036126e6576126e561268c565b5b50919050565b60008190508160005260206000209050919050565b60006020601f8301049050919050565b600082821b905092915050565b60006008830261274e7fffffffffffffffffffffffffffffffffffffffffffffffffffffffffffffffff82612711565b6127588683612711565b95508019841693508086168417925050509392505050565b6000819050919050565b600061279561279061278b846123df565b612770565b6123df565b9050919050565b6000819050919050565b6127af8361277a565b6127c36127bb8261279c565b84845461271e565b825550505050565b600090565b6127d86127cb565b6127e38184846127a6565b505050565b5b81811015612807576127fc6000826127d0565b6001810190506127e9565b5050565b601f82111561284c5761281d816126ec565b61282684612701565b81016020851015612835578190505b61284961284185612701565b8301826127e8565b50505b505050565b600082821c905092915050565b600061286f60001984600802612851565b1980831691505092915050565b6000612888838361285e565b9150826002028217905092915050565b6128a1826122c6565b67ffffffffffffffff8111156128ba576128b9611fe7565b5b6128c482546126bb565b6128cf82828561280b565b600060209050601f83116001811461290257600084156128f0578287015190505b6128fa858261287c565b865550612962565b601f198416612910866126ec565b60005b8281101561293857848901518255600182019150602085019450602081019050612913565b868310156129555784890151612951601f89168261285e565b8355505b6001600288020188555050505b505050505050565b7f4e487b7100000000000000000000000000000000000000000000000000000000600052601160045260246000fd5b60006129a4826123df565b91507fffffffffffffffffffffffffffffffffffffffffffffffffffffffffffffffff82036129d6576129d561296a565b5b600182019050919050565b600060408201905081810360008301526129fb818561230c565b9050612a0a60208301846123e9565b9392505050565b7f4161646861617220616c72656164792072656769737465726564000000000000600082015250565b6000612a47601a836122d1565b9150612a5282612a11565b602082019050919050565b60006020820190508181036000830152612a7681612a3a565b9050919050565b7f57616c6c657420616c7265616479206c696e6b656420746f20616e6f7468657260008201527f2041616468616172000000000000000000000000000000000000000000000000602082015250565b6000612ad96028836122d1565b9150612ae482612a7d565b604082019050919050565b60006020820190508181036000830152612b0881612acc565b9050919050565b60006020820190508181036000830152612b29818461230c565b905092915050565b7f4e487b7100000000000000000000000000000000000000000000000000000000600052603260045260246000fd5b7f53747564656e74206e6f7420666f756e64000000000000000000000000000000600082015250565b6000612b966011836122d1565b9150612ba182612b60565b602082019050919050565b60006020820190508181036000830152612bc581612b89565b9050919050565b7f4e6f7420617574686f72697a65643a206d7573742062652063757272656e742060008201527f77616c6c6574206f722061646d696e0000000000000000000000000000000000602082015250565b6000612c28602f836122d1565b9150612c3382612bcc565b604082019050919050565b60006020820190508181036000830152612c5781612c1b565b9050919050565b7f4e65772077616c6c657420616c7265616479206c696e6b656400000000000000600082015250565b6000612c946019836122d1565b9150612c9f82612c5e565b602082019050919050565b60006020820190508181036000830152612cc381612c87565b9050919050565b6000604082019050612cdf60008301856122b7565b612cec60208301846122b7565b9392505050565b7f4365727469666963617465206e6f7420666f756e640000000000000000000000600082015250565b6000612d296015836122d1565b9150612d3482612cf3565b602082019050919050565b60006020820190508181036000830152612d5881612d1c565b9050919050565b7f416c7265616479207265766f6b65640000000000000000000000000000000000600082015250565b6000612d95600f836122d1565b9150612da082612d5f565b602082019050919050565b60006020820190508181036000830152612dc481612d88565b9050919050565b6000604082019050612de060008301856122b7565b612ded602083018461224d565b939250505056fea2646970667358221220f638c0eb92d580b298878c0e1a74aa8b013ec65afe743068229df5bca65f301f64736f6c63430008140033",
  "linkReferences": {},
  "deployedLinkReferences": {}
}